:100000000C9463000C948B000C948B000C944E05A4
:100010000C944E050C944E050C948B000C948B00A4
:100020000C948B000C948B000C948B000C948B0024
:100030000C948B000C948B000C948B000C948B0014
:100040000C9404050C948B000C94D2040C94AC0416
:100050000C948B000C948B000C948B000C948B00F4
:100060000C948B000C948B000000000024002700EF
:100070002A0000000008000201000003040700003D
:1000800000000000000000000000230026002900FE
:1000900000000000250028002B00040404040404D0
:1000A0000404020202020202030303030303010227
:1000B00004081020408001020408102001020408F6
:1000C0001020C605770A11241FBECFEFD8E0DEBF8F
:1000D000CDBF12E0A0E0B1E0ECE9F5E102C005908F
:1000E0000D92A635B107D9F723E0A6E5B2E001C02D
:1000F0001D92A33BB207E1F710E0C2E6D0E004C0D6
:100100002197FE010E94A70AC136D107C9F70E94B4
:10011000E1060C94C10A0C940000AF92BF92CF92FA
:10012000DF92EF92FF920F931F93CF93DF936C01B7
:100130007B018B01040F151FEB015E01AE18BF0898
:10014000C017D10759F06991D601ED91FC9101904A
:10015000F081E02DC6010995892B79F7C501DF9162
:10016000CF911F910F91FF90EF90DF90CF90BF90B4
:10017000AF900895FC01538D448D252F30E0842FDE
:1001800090E0821B930B541710F0CF9608950197BF
:100190000895FC01918D828D981761F0A28DAE0FAC
:1001A000BF2FB11D5D968C91928D9F5F9F73928F33
:1001B00090E008958FEF9FEF0895FC01918D828D5F
:1001C000981731F0828DE80FF11D858D90E008952C
:1001D0008FEF9FEF0895FC01918D228D892F90E084
:1001E000805C9F4F821B91098F739927089587EA3E
:1001F00092E00E94EB0021E0892B09F420E0822F9D
:10020000089580E090E0892B29F00E94F700811189
:100210000C9400000895FC01A48DA80FB92FB11D06
:10022000A35ABF4F2C91848D90E001968F7399272C
:10023000848FA689B7892C93A089B1898C9183700A
:1002400080648C93938D848D981306C00288F38903
:10025000E02D80818F7D80830895EF92FF920F9330
:100260001F93CF93DF93EC0181E0888F9B8D8C8D62
:1002700098131AC0E889F989808185FF15C09FB756
:10028000F894EE89FF896083E889F9898081837019
:10029000806480839FBF81E090E0DF91CF911F91C8
:1002A0000F91FF90EF900895F62E0B8D10E00F5FE9
:1002B0001F4F0F731127E02E8C8D8E110CC00FB6BF
:1002C00007FCFACFE889F989808185FFF5CFCE0157
:1002D0000E940B01F1CFEB8DEC0FFD2FF11DE35AC6
:1002E000FF4FF0829FB7F8940B8FEA89FB898081DA
:1002F0008062CFCFCF93DF93EC01888D8823B9F054
:10030000AA89BB89E889F9898C9185FD03C0808120
:1003100086FD0DC00FB607FCF7CF8C9185FFF2CF9D
:10032000808185FFEDCFCE010E940B01E9CFDF91E7
:10033000CF910895833081F028F4813099F0823094
:10034000A9F008958730A9F08830C9F08430B1F45D
:10035000809180008F7D03C0809180008F77809393
:100360008000089584B58F7784BD089584B58F7D0E
:10037000FBCF8091B0008F778093B000089580917B
:10038000B0008F7DF9CF1F93CF93DF93282F30E0FC
:10039000F901EE58FF4F8491F901E255FF4FD491D6
:1003A000F901E656FF4FC491CC23A9F0162F811115
:1003B0000E949A01EC2FF0E0EE0FFF1FE057FF4F75
:1003C000A591B4918FB7F894EC91111108C0D09514
:1003D000DE23DC938FBFDF91CF911F910895DE2B39
:1003E000F8CFCF93DF9390E0FC01E255FF4F2491CB
:1003F00086569F4FFC0184918823D1F090E0880FAE
:10040000991FFC01E859FF4FA591B491FC01E057F9
:10041000FF4FC591D49161110EC09FB7F8948C9194
:10042000E22FE0958E238C932881E223E8839FBFFF
:10043000DF91CF9108958FB7F894EC91E22BEC9374
:100440008FBFF6CF3FB7F89480919B0290919C02AA
:10045000A0919D02B0919E0226B5A89B05C02F3F9A
:1004600019F00196A11DB11D3FBFBA2FA92F982FDA
:100470008827BC01CD01620F711D811D911D42E0D5
:10048000660F771F881F991F4A95D1F708958F929D
:100490009F92AF92BF92CF92DF92EF92FF924B0169
:1004A0005C010E9422026B017C010E9422026C19F5
:1004B0007D098E099F09683E734081059105A8F367
:1004C00021E0821A9108A108B10888EEC80E83E0E5
:1004D000D81EE11CF11C81149104A104B10429F778
:1004E000FF90EF90DF90CF90BF90AF909F908F9054
:1004F000089508952091A1023091A202281739078A
:1005000071F490919F028091A002981741F0E091C0
:100510009F02F0E0EA5AFD4F808190E008958FEF4E
:100520009FEF08950895EF92FF920F931F93CF933B
:10053000DF93DC015C96ED90FC905D97E114F10493
:1005400079F481E090E013969C938E93129790E05B
:1005500080E0DF91CF911F910F91FF90EF90089570
:100560005196ED91FC91529750968C915097982FFF
:1005700090950FB75E962C915E97122F127021FD09
:100580006095F8942081112319F1282B2083E7012D
:100590002197F1F728E0462F50E0308160FF1AC024
:1005A000382B3083E7012197F1F7BA0175956795EC
:1005B000215089F7112381F08081892380830FBF27
:1005C0005C968D919C910197F1F781E090E0C1CF0D
:1005D0002923DCCF3923E5CF9081892BEFCF2091E0
:1005E000A1023091A2022817390771F48091A0026C
:1005F00020919F0290E0805C9F4F821B910960E4F4
:1006000070E00E94930A089590E080E008952091A0
:10061000A1023091A20228173907B9F490919F02E4
:100620008091A002981789F0E0919F02F0E0EA5AC9
:10063000FD4F808120919F0230E02F5F3F4F2F734D
:10064000332720939F0290E008958FEF9FEF089546
:1006500090E080E00895CF93DF93EC0160E08E811D
:100660000E94C30161E08E810E94C30160E08E811F
:100670000E94C3018BE891E00197F1F7DF91CF91E0
:100680000895CF92DF92EF92FF920F931F93CF9333
:10069000DF936C017C0187E0E80EF11CD0E0C0E044
:1006A000062F10E0B8010C2E02C0759567950A94CC
:1006B000E2F76170F70181917F010E94C3012196E9
:1006C000C430D10579F7C601DF91CF911F910F9109
:1006D000FF90EF90DF90CF900C942B03CF92DF929E
:1006E000EF92FF920F931F93CF93DF93EC01F62EBF
:1006F000642F8C810E94C3018D818F3F19F060E0CF
:100700000E94C3010F2D10E08F8584FF25C06E016C
:1007100087E0C80ED11CF12CE12CB8010E2C02C0D0
:10072000759567950A94E2F76170F60181916F0102
:100730000E94C301FFEFEF1AFF0A88E0E816F104F8
:1007400061F7CE01DF91CF911F910F91FF90EF9054
:10075000DF90CF900C942B03B80184E075956795DA
:100760008A95E1F7CE010E9441036F2DCE01DF9102
:10077000CF911F910F91FF90EF90DF90CF900C944D
:10078000410340E0682F84E493E00C946E0381E021
:100790000E94C1038BE39FE10197F1F70895CF9386
:1007A000DF93823029F49091530398609093530320
:1007B000809357031092580380E48093590380E19B
:1007C00080935A0380E580935B0361E08091480346
:1007D0000E94F101809149038F3F19F061E00E946E
:1007E000F10161E080914A030E94F101C4E4D3E089
:1007F0009E01245433408091530384FD0BC084E058
:1008000090E021962817390744F461E08E810E9418
:10081000F101EECF88E090E0F4CF8BE39DE001970B
:10082000F1F760E0809148030E94C30160E080918D
:100830004A030E94C301809149038F3F19F060E091
:100840000E94C3018091530384FD34C063E084E4BB
:1008500093E00E944103CBE4D6E4CE010197F1F787
:1008600063E084E493E00E9441032197F1F763E0A1
:1008700084E493E00E94410383E592E00197F1F75D
:1008800062E084E493E00E9441038091530380621C
:100890000E94C10384E0809354038CE00E94C10352
:1008A0000E94C70382E08093550386E0DF91CF91D9
:1008B0000C94C10380620E94C1038BE496E401970B
:1008C000F1F78091530380620E94C10383E592E0B7
:1008D0000197F1F78091530380620E94C103D5CF45
:1008E000E0915703E23040F4E150F0E0EC5BFC4F64
:1008F000848980680C94C103E1E0F7CF41E00E9455
:100900006E0381E090E00895FB0101900020E9F77B
:100910003197AF01461B570BDC01ED91FC91028032
:10092000F381E02D0994BC0184E493E00C948404E9
:100930000F931F93CF93DF93EC010E9484048C01EB
:1009400060E371E0CE010E948404800F911FDF916B
:10095000CF911F910F9108951F920F920FB60F9292
:1009600011242F933F934F935F936F937F938F93B4
:100970009F93AF93BF93EF93FF9387EA92E00E9418
:100980000B01FF91EF91BF91AF919F918F917F915B
:100990006F915F914F913F912F910F900FBE0F90EC
:1009A0001F9018951F920F920FB60F9211242F933C
:1009B0008F939F93EF93FF93E091B702F091B8026A
:1009C0008081E091BD02F091BE0282FD1BC090814A
:1009D0008091C0028F5F8F732091C102821741F016
:1009E000E091C002F0E0E955FD4F958F8093C00281
:1009F000FF91EF919F918F912F910F900FBE0F90CC
:100A00001F9018958081F4CF1F920F920FB60F920E
:100A100011242F933F938F939F93AF93BF93809114
:100A2000970290919802A0919902B0919A02309108
:100A3000960223E0230F2D3758F50196A11DB11D15
:100A4000209396028093970290939802A093990224
:100A5000B0939A0280919B0290919C02A0919D027A
:100A6000B0919E020196A11DB11D80939B029093AF
:100A70009C02A0939D02B0939E02BF91AF919F9163
:100A80008F913F912F910F900FBE0F901F9018954F
:100A900026E8230F0296A11DB11DD2CF1F920F92FF
:100AA0000FB60F9211242F933F934F935F936F9341
:100AB0007F938F939F93AF93BF93EF93FF93E091B7
:100AC000A102F091A202309749F0A685B7858585ED
:100AD000968D91FF14C09C918923A1F4FF91EF9111
:100AE000BF91AF919F918F917F916F915F914F9146
:100AF0003F912F910F900FBE0F901F9018959C91D2
:100B0000892361F7A389B4899C918589809589237C
:100B10008C93868997890197F1F7608D718DA685F1
:100B2000B785558538E020E0CB010197F1F7822F9A
:100B300090E095958795282F4C91452309F02068E2
:100B4000315091F7868D81FD20958091A00290E033
:100B500001968F73992730919F02381799F0A091D1
:100B6000A002B0E0AA5ABD4F2C938093A002828DC0
:100B7000938D0197F1F7A389B4898C919589892B7D
:100B80008C93ACCF868D8160868FF1CF1092AA02B4
:100B90001092A90288EE93E0A0E0B0E08093AB024F
:100BA0009093AC02A093AD02B093AE0224E031E08A
:100BB0003093A8022093A70225EC30E03093B402D2
:100BC0002093B30224EC30E03093B6022093B502B8
:100BD00020EC30E03093B8022093B70221EC30E0F3
:100BE0003093BA022093B90222EC30E03093BC0279
:100BF0002093BB0226EC30E03093BE022093BD026E
:100C00001092C0021092C1021092C2021092C3024E
:100C100010929703109296038093980390939903F0
:100C2000A0939A03B0939B0382E291E09093950383
:100C3000809394031092AB031092AA031092AD0319
:100C40001092AC031092AF031092AE031092B10356
:100C50001092B0036091B2036E7F6D7F6093B20318
:100C60006695617081E0682783E00E94C30161E0BE
:100C700083E00E94F101E1EBF0E0E491E093A40352
:100C8000EDE9F0E0E491F0E0EE0FFF1FE057FF4FD9
:100C9000859194919093A6038093A50360E082E0F0
:100CA0000E94F1018091B20381FD04C061E082E005
:100CB0000E94C30184E993E022E02093A003E0EBCB
:100CC000F0E0E491E093A103ECE9F0E0E491F0E0DE
:100CD000EE0FFF1FEA57FF4F259134913093A30386
:100CE0002093A20310926303109262031092650393
:100CF0001092640320E430E030936703209366038E
:100D000010926903109268034FEF5FEFBA014093AE
:100D10006A0350936B0360936C0370936D0330937D
:100D20006F0320936E0320E031EE30937103209324
:100D30007003109272031092730310927403109256
:100D40007503409376035093770360937803709311
:100D500079031092930310929203909391038093DE
:100D6000900390938F0380938E0310924703109209
:100D7000460386E191E0909345038093440387E026
:100D8000809348038FEF8093490388E080934A0360
:100D900089E080934B038AE080934C038BE080933F
:100DA0004D038CE080934E0310924F03109250033A
:100DB00010925103109252031092530381E00C944D
:100DC000CF03CF93DF93CDB7DEB7C954D1090FB6A8
:100DD000F894DEBF0FBECDBF789484B5826084BD29
:100DE00084B5816084BD85B5826085BD85B581602F
:100DF00085BD80916E00816080936E0010928100AD
:100E00008091810082608093810080918100816067
:100E10008093810080918000816080938000809128
:100E2000B10084608093B1008091B00081608093B4
:100E3000B00080917A00846080937A0080917A007B
:100E4000826080937A0080917A00816080937A003A
:100E500080917A00806880937A001092C10060E0EF
:100E600085E00E94F10161E08EE00E94F10161E005
:100E70008FE00E94F10161E080E10E94F101E091C8
:100E8000B702F091B80202E00083E091B302F09162
:100E9000B4021082E091B502F091B6028FEC80832B
:100EA0001092BF02E091BB02F091BC0216E01083E9
:100EB000E091B902F091BA02808180618083E09173
:100EC000B902F091BA02808188608083E091B90212
:100ED000F091BA02808180688083E091B902F0913C
:100EE000BA0280818F7D808368EE73E080E090E0BD
:100EF0000E944702E0919203F0919303309731F101
:100F0000A089B1890C93A089B1891C92A485B5856B
:100F10001C92A685B78580E18C93108EA489B58933
:100F20001C93A289B3898C9180618C93A289B38927
:100F30008C9188608C93A289B3898C9180688C9302
:100F40000288F389E02D80818F7D8083E09190037A
:100F5000F0919103309709F477C0138E128E118EA1
:100F6000108E178A168A82E490E0958F848F84858C
:100F7000863108F03DC02FE030E0378B268B20E42F
:100F800030E0318F208F27E230E0338F228F909135
:100F90006800883008F4F2C021E08E3008F420E0C8
:100FA00081E001C0880F2A95EAF7892B80936800B9
:100FB00094852DE630E0983050F02BE630E09E30FE
:100FC00030F02CE630E0963110F030E020E0348B49
:100FD000238B292F30E0983008F0D2C081E001C087
:100FE000880F9A95EAF7858B848D958D0197F1F797
:100FF000828D938D892B41F14091A1025091A202E3
:10100000E417F50709F14115510569F0DA01539626
:101010002D913C91D9019C91DA0155968C91809546
:101020008923D9018C93868D8E7F868F1092A002A2
:1010300010929F02F093A202E093A102A389B489C7
:101040008C919589892B8C9382E00E94CF038091AB
:10105000720390917303209174033091750343E1FF
:101060004A873B872C879D878E8780918E0390913E
:101070008F03DC01ED91FC910190F081E02D6FEE8A
:10108000099580918E0390918F03DC01ED91FC9185
:101090000190F081E02D61E0099580918E0390919F
:1010A0008F03DC01ED91FC910190F081E02D6FEF59
:1010B000099580918E0390918F03DC01ED91FC9155
:1010C0000190F081E02D6FEF099580918E03909152
:1010D0008F03DC01ED91FC910190F081E02D6FEF29
:1010E000099580918E0390918F03DC01ED91FC9125
:1010F0000190F081E02D6FEF099580918E03909122
:101100008F03DC01ED91FC910190F081E02D61E015
:10111000099580918E0390918F03DC01ED91FC91F4
:101120000190F081E02D60E0099580918E0390910F
:101130008F03DC01ED91FC910190F081E02D67E0DF
:1011400009956E01BAE0CB0ED11CE6E0FE2E08E058
:1011500010E080918E0390918F03DC01ED91FC9162
:101160000190F081E02DFA94FF20B9F0D601ED90C6
:101170006D016E2D09950E0D111DEBCF84E015CF7D
:101180009E3040F42850310981E001C0880F2A9533
:10119000EAF729CF2E503109F7CF612F09958091B9
:1011A0008E0390918F03DC01ED91FC910190F08111
:1011B000E02D602F099565E0E62EF12C992493949B
:1011C000CC24C3947FEED72EB12CA12C10E000E0EC
:1011D00080918E0390918F03DC01ED91FC9100844E
:1011E000F185E02D0995892B09F0BBC061E070E025
:1011F00080E090E00E944702BFEFAB1ABB0AE8EE26
:10120000AE16E3E0BE0620F383E391E00E94930470
:101210000E9470048FE491E00E94930461E471E005
:1012200087EA92E00E94980468EB7BE080E090E01F
:101230000E9447020E94C70368EE73E080E090E0DE
:101240000E94470297E7692E90E0792E23EBE22E69
:1012500020E0F22E3FE9C32E30E0D32E40E0A42E52
:1012600040E0B42E52E0852E912C8091A502909101
:10127000A602892BD1F46BE871E084E493E00E942C
:1012800098040E94700489EA91E00E9493046AE93C
:1012900071E087EA92E00E94980460E08EE00E948C
:1012A000C30160E08FE00E94C3018091A50290918C
:1012B000A602019781F48BE891E00E9493040E94BA
:1012C000700488EC91E00E94930469EB71E087EA76
:1012D00092E00E9498048091A5029091A602029744
:1012E00009F0A8C088ED91E00E9493040E94700468
:1012F00088EE91E00E94930466EF71E087EA92E045
:101300000E94980404E610E01092A6021092A50232
:1013100062E370E080E090E00E9447020150110912
:1013200099F70E94C7038091A3029091A4020197AC
:1013300009F068C083E092E00E94930460E172E0EB
:1013400087EA92E00E94980483E092E00E9493046E
:1013500064E670E080E090E00E9447020E94C703CC
:10136000F3CF80918E0390918F03DC01ED91FC917E
:101370000284F385E02D09950930110520F5F80167
:10138000EC53F64F0C94A70AD109D709CE09CE0920
:10139000CE09CE09CD09DE09E109982E0F5F1F4F56
:1013A00017CF8F3E09F014CFD82EC12CF7CFC82A03
:1013B000B1E0CB16BFEEDB0689F326CFF82EE12C89
:1013C000EDCFE82AEBCFE1E0F0E0EC0FFD1FE00FFE
:1013D000F11F8083C80108978E159F05F9F6F7E085
:1013E0009F1212CF8A8581110FCF8CE591E00E9468
:1013F00093040E94700487E691E00E94930466E7DC
:1014000071E00ECF8CE192E00E9493040E94700480
:101410008BE292E00E9493046CE372E087EA92E030
:101420000E94980468E873E180E090E00E9447021F
:101430000E94C703F3018491F7011491F60104910E
:10144000002389F181110E949A01E02FF0E0EE0F54
:10145000FF1FEA57FF4FA591B4918C91182319F102
:101460008091A5029091A60201968330910579F1B1
:101470009093A6028093A5028091A5029091A60266
:101480008130910549F568EE73E080E090E00E94BC
:10149000470261E08EE00E94C30168EE73E080E0E5
:1014A00090E00E94470262E370E080E090E00E94DA
:1014B00047020E94C703A114B10409F4D6CE0E94CA
:1014C000F700882309F4D1CE0E940000CECE90927E
:1014D000A6028092A502D0CF029729F768EE73E0AA
:1014E00080E090E00E94470261E08FE0D4CF82E28A
:1014F00091E090939503809394038091A102909141
:10150000A2028459934071F4E091A703F091A803DB
:1015100090818091A9038095892380831092A202F3
:101520001092A102089597FB072E16F4009407D09D
:1015300077FD09D00E94AD0A07FC05D03EF49095D6
:1015400081959F4F0895709561957F4F0895EE0F97
:10155000FF1F0590F491E02D0994AA1BBB1B51E1DC
:1015600007C0AA1FBB1FA617B70710F0A61BB70B13
:10157000881F991F5A95A9F780959095BC01CD01B8
:10158000089510E0C2E6D0E004C0FE010E94A70A60
:0C1590002196C336D107C9F7F894FFCFAD
:10159C00000000002D018D00BA007A01EB00C9009B
:1015AC00DD00000000007E048D002803790200009D
:1015BC00000093028D0028039202EF0207037A02C7
:1015CC000D0A0042696F6D65747269636F206E6FEE
:1015DC000062696F6D65747269636F5F6E6F5F64D3
:1015EC00657465637461646F203A280042696F6D9D
:1015FC0065747269636F0064657465637461646FAC
:10160C002120203A290062696F6D65747269636FDD
:10161C005F64657465637461646F0070726573698F
:10162C006F6E6520626F746F6E0070726573696F98
:10163C006E6520626F746F6E207061726120636FD3
:10164C006E746163746F20310070726573696F6EB4
:10165C006520626F746F6E207061726120636F6EB3
:10166C00746163746F203200434F4C4F51554520C9
:10167C00656C206465646F007061726120616E61DD
:10168C006C6973697300436F6C6F71756520646569
:10169C00646F004175746F2041637469766F21002B
:1016AC006175746F2061637469766F004E4F2064AE
:1016BC00657465637461646F2E2E00696E74656E5B
:1016CC007465206F7472612076657A004572726F52
:1016DC007220696E74656E7465206E756576616DC9
:0616EC00656E746521002B
:107E0000112484B714BE81FFF0D085E080938100F7
:107E100082E08093C00088E18093C10086E0809377
:107E2000C20080E18093C4008EE0C9D0259A86E02C
:107E300020E33CEF91E0309385002093840096BBD3
:107E4000B09BFECF1D9AA8958150A9F7CC24DD24C4
:107E500088248394B5E0AB2EA1E19A2EF3E0BF2EE7
:107E6000A2D0813461F49FD0082FAFD0023811F036
:107E7000013811F484E001C083E08DD089C08234E0
:107E800011F484E103C0853419F485E0A6D080C0E4
:107E9000853579F488D0E82EFF2485D0082F10E0AE
:107EA000102F00270E291F29000F111F8ED06801E7
:107EB0006FC0863521F484E090D080E0DECF843638
:107EC00009F040C070D06FD0082F6DD080E0C81688
:107ED00080E7D80618F4F601B7BEE895C0E0D1E017
:107EE00062D089930C17E1F7F0E0CF16F0E7DF06D8
:107EF00018F0F601B7BEE89568D007B600FCFDCFD4
:107F0000A601A0E0B1E02C9130E011968C91119780
:107F100090E0982F8827822B932B1296FA010C0160
:107F200087BEE89511244E5F5F4FF1E0A038BF0790
:107F300051F7F601A7BEE89507B600FCFDCF97BE46
:107F4000E89526C08437B1F42ED02DD0F82E2BD052
:107F50003CD0F601EF2C8F010F5F1F4F84911BD097
:107F6000EA94F801C1F70894C11CD11CFA94CF0C13
:107F7000D11C0EC0853739F428D08EE10CD085E9AC
:107F80000AD08FE07ACF813511F488E018D01DD067
:107F900080E101D065CF982F8091C00085FFFCCF94
:107FA0009093C60008958091C00087FFFCCF809118
:107FB000C00084FD01C0A8958091C6000895E0E648
:107FC000F0E098E1908380830895EDDF803219F02E
:107FD00088E0F5DFFFCF84E1DECF1F93182FE3DFCA
:107FE0001150E9F7F2DF1F91089580E0E8DFEE27F6
:047FF000FF270994CA
:027FFE00040479
:0400000300007E007B
:00000001FF
