:100000000C945D000C9485000C9485000C94850084
:100010000C9485000C9485000C9485000C9485004C
:100020000C9485000C9485000C9485000C9485003C
:100030000C9485000C9485000C9485000C9485002C
:100040000C94AF020C9485000C947D020C94570222
:100050000C9485000C9485000C9485000C9485000C
:100060000C9485000C94850000000008000201003B
:100070000003040700000000000000000000000072
:10008000250028002B0000000000240027002A0083
:10009000040404040404040402020202020203032E
:1000A0000303030301020408102040800102040836
:1000B00010200102040810200B0511241FBECFEFF1
:1000C000D8E0DEBFCDBF11E0A0E0B1E0E4EAFFE0A0
:1000D00002C005900D92AA37B107D9F722E0AAE72E
:1000E000B1E001C01D92A432B207E1F710E0CDE506
:1000F000D0E004C02197FE010E94C507CC35D1078E
:10010000C9F70E94F9020C94D0070C940000CF921A
:10011000DF92EF92FF920F931F93CF93DF936C01C7
:100120007A018B01C0E0D0E0CE15DF0589F0D8015F
:100130006D918D01D601ED91FC910190F081E02D42
:10014000C6010995892B11F47E0102C02196ECCFDE
:10015000C701DF91CF911F910F91FF90EF90DF903A
:10016000CF900895089580E090E00895FC01538DAC
:10017000448D252F30E0842F90E0821B930B541781
:1001800010F0CF96089501970895FC01918D828D0E
:10019000981761F0828DDF01A80FB11D5D968C91DB
:1001A000928D9F5F9F73928F90E008958FEF9FEFE6
:1001B0000895FC01918D828D981731F0828DE80FA2
:1001C000F11D858D90E008958FEF9FEF0895FC015C
:1001D000918D228D892F90E0805C9F4F821B910929
:1001E0008F739927089587E891E00E94E70021E046
:1001F000892B09F420E0822F0895FC01848DDF0112
:10020000A80FB11DA35ABF4F2C91848D90E0019689
:100210008F739927848FA689B7892C93A089B18978
:100220008C9180648C93938D848D981306C0028882
:10023000F389E02D80818F7D80830895EF92FF9276
:100240000F931F93CF93DF93EC0181E0888F9B8DF9
:100250008C8D981305C0E889F989808185FD24C0BB
:10026000F62E0B8D10E00F5F1F4F0F731127E02E3E
:100270008C8DE8120CC00FB607FCFACFE889F9891B
:10028000808185FFF5CFCE010E94FD00F1CF8B8DDF
:10029000FE01E80FF11DE35AFF4FF0820B8FEA8950
:1002A000FB898081806207C0EE89FF896083E889CD
:1002B000F98980818064808381E090E0DF91CF9133
:1002C0001F910F91FF90EF900895CF93DF93EC0172
:1002D000888D8823C9F0EA89FB89808185FD05C066
:1002E000A889B9898C9186FD0FC00FB607FCF5CFA0
:1002F000808185FFF2CFA889B9898C9185FFEDCFE8
:10030000CE010E94FD00E7CFDF91CF91089580E0FC
:1003100090E0892B29F00E94F30081110C940000D9
:10032000089590E0FC01E859FF4F3491FC01EC5531
:10033000FF4F2491FC01E057FF4FE491EE2309F4B5
:100340003BC0332339F1333091F038F43130A9F028
:10035000323001F584B58F7D12C0373091F03830DE
:10036000A1F03430B9F4809180008F7D03C080917A
:1003700080008F77809380000DC084B58F7784BD17
:1003800009C08091B0008F7703C08091B0008F7D4D
:100390008093B000F0E0EE0FFF1FE458FF4FA591EF
:1003A000B4918FB7F894EC91611103C020952E237E
:1003B00001C02E2B2C938FBF08953FB7F8948091E6
:1003C0007F0190918001A0918101B091820126B5B9
:1003D000A89B05C02F3F19F00196A11DB11D3FBF7D
:1003E000BA2FA92F982F8827820F911DA11DB11D0B
:1003F000BC01CD0142E0660F771F881F991F4A9507
:10040000D1F70895009769F0FC0101900020E9F709
:100410003197AF01481B590BBC0187E891E00C9460
:10042000870080E090E008958F929F92AF92BF92F4
:100430000F931F93CF93DF93CDB7DEB7A1970FB67E
:10044000F894DEBF0FBECDBF19A2423008F44AE0D7
:100450008E010F5D1F4F842E912CA12CB12CA50174
:1004600094010E948F07E62FB901CA0101501109BA
:10047000EA3014F4E05D01C0E95CD801EC93232B71
:10048000242B252B61F7C8010E940202A1960FB60A
:10049000F894DEBF0FBECDBFDF91CF911F910F91BA
:1004A000BF90AF909F908F9008950E94CB071F92AE
:1004B0000F920FB60F9211242F933F934F935F9398
:1004C0006F937F938F939F93AF93BF93EF93FF931C
:1004D00087E891E00E94FD00FF91EF91BF91AF91FD
:1004E0009F918F917F916F915F914F913F912F914C
:1004F0000F900FBE0F901F9018951F920F920FB67E
:100500000F9211242F938F939F93EF93FF93E0917A
:100510009701F09198018081E0919D01F0919E01F9
:1005200082FD12C090818091A0018F5F8F73209116
:10053000A101821751F0E091A001F0E0E957FE4FD0
:10054000958F8093A00101C08081FF91EF919F91D1
:100550008F912F910F900FBE0F901F9018951F92A3
:100560000F920FB60F9211242F933F938F939F9367
:10057000AF93BF9380917B0190917C01A0917D010D
:10058000B0917E0130917A0123E0230F2D3720F4C2
:100590000196A11DB11D05C026E8230F0296A11DDD
:1005A000B11D20937A0180937B0190937C01A093ED
:1005B0007D01B0937E0180917F0190918001A09197
:1005C0008101B09182010196A11DB11D80937F012F
:1005D00090938001A0938101B0938201BF91AF916C
:1005E0009F918F913F912F910F900FBE0F901F9071
:1005F0001895CF93DF93CDB7DEB72C970FB6F8944D
:10060000DEBF0FBECDBF789484B5826084BD84B553
:10061000816084BD85B5826085BD85B5816085BDFD
:1006200080916E00816080936E00109281008091B5
:10063000810082608093810080918100816080933D
:100640008100809180008160809380008091B10062
:1006500084608093B1008091B00081608093B0008D
:1006600080917A00846080937A0080917A00826021
:1006700080937A0080917A00816080937A008091E3
:100680007A00806880937A001092C10022E030E006
:10069000F901EC55FF4F4491F901E057FF4F849168
:1006A000882399F090E0880F991FFC01EA57FF4FCB
:1006B000A591B491FC01E458FF4F859194918FB7B7
:1006C000F894EC91E42BEC938FBF2F5F3F4F2D30CC
:1006D0003105F1F6E0919701F091980182E0808375
:1006E000E0919301F09194011082E0919501F091D5
:1006F00096018FEC808310929F01E0919B01F09115
:100700009C0186E08083E0919901F0919A018081BB
:1007100080618083E0919901F0919A0180818860E5
:100720008083E0919901F0919A01808180688083B3
:10073000E0919901F0919A0180818F7D80830AE098
:1007400010E020E420937C0080917A008064809304
:100750007A0080917A0086FDFCCF609178008091CC
:10076000790070E0782B072E000C880B990B0E9403
:10077000540620E030E040EA50E40E94090720E0FF
:1007800030E040E85AE30E9409072AE037ED43E2EF
:100790005CE30E94AA0520E030E040E251E40E94C0
:1007A00009076B017C014B015C016093830170932D
:1007B000840180938501909386010E941C06CB01E1
:1007C000B8010E947B071C01CB01B8010E947B0786
:1007D0007C876B879A878987A7019601C701B60135
:1007E0000E947607882319F08AE691E01AC0260154
:1007F0003701E89477F82FEF3FEF4FE75FE7C3014A
:10080000B2010E94760781110FC02FEF3FEF4FE733
:100810005FE7C301B2010E94A50518162CF48EE60D
:1008200091E00E94020284C02FEF3FEF4FE75FE4A8
:10083000C701B6010E94040718161CF482E791E074
:10084000F0CF2FEF3FEF4FE75FECC701B6010E94FB
:10085000A50587FDF3CF20E030E0A901C701B6016F
:100860000E94A50587FF11C0E0918701F0918801E2
:100870000190F081E02D6DE287E891E00995460155
:100880005701B7FAB094B7F8B0942AE037ED43EACD
:100890005BE3C501B4010E9439054B015C010E9474
:1008A00023066B017C010E9452069B01AC01C5012D
:1008B000B4010E9438054B015C014AE0C701B60152
:1008C0000E941402E0918701F09188010190F0816B
:1008D000E02D6EE287E891E0099520E030E040E20B
:1008E00051E4C501B4010E9409076B017C010E941B
:1008F00023064B01A12CB12C4AE0C501B4010E9492
:100900001402C501B4010E9452069B01AC01C7014B
:10091000B6010E94380520E030E040E251E40E9438
:1009200009070E94230680E090E04AE00E9414023A
:1009300086E791E00E9402021A8309833C822B829F
:1009400089859A859E838D83AB85BC85B887AF8367
:1009500022E3C22ED12CDE0111967D0188E03324E2
:100960003394380E60E00E94910161E0832D0E9473
:100970009101A12CB12CD701ED91FC9193E0EE0FE8
:10098000FF1F9A95E1F7EA0DFB1DEE5EFE4F6081B9
:1009900082E08A0D0E949101BFEFAB1ABB0A27E0EB
:1009A000A216B10441F70E94DD014B015C0184E60F
:1009B000482E512C612C712C0E94DD01DC01CB01F1
:1009C00088199909AA09BB09883E9340A105B10578
:1009D00058F081E0481A51086108710898EE890EB4
:1009E00093E0991EA11CB11C4114510461047104CF
:1009F00019F782E0E80EF11C832D8C3009F0AFCF9F
:100A000060E00E94910191E0C91AD10809F0A3CFDA
:100A10000E94870196CEE7E8F1E01382128288EE09
:100A200093E0A0E0B0E084839583A683B78384E05D
:100A300091E09183808385EC90E09587848784ECB6
:100A400090E09787868780EC90E0918B808B81EC9B
:100A500090E0938B828B82EC90E0958B848B86EC7C
:100A600090E0978B868B118E128E138E148E0895C4
:100A70005058BB27AA270E9450050C94CA060E9412
:100A8000BC0638F00E94C30620F039F49F3F19F4E9
:100A900026F40C94B9060EF4E095E7FB0C94B3062B
:100AA000E92F0E94DB0658F3BA1762077307840721
:100AB000950720F079F4A6F50C94FD060EF4E09568
:100AC0000B2EBA2FA02D0B01B90190010C01CA0108
:100AD000A0011124FF27591B99F0593F50F4503EB3
:100AE00068F11A16F040A22F232F342F4427585FA5
:100AF000F3CF469537952795A795F0405395C9F7BD
:100B00007EF41F16BA0B620B730B840BBAF0915074
:100B1000A1F0FF0FBB1F661F771F881FC2F70EC013
:100B2000BA0F621F731F841F48F4879577956795E6
:100B3000B795F7959E3F08F0B0CF9395880F08F0D2
:100B40009927EE0F9795879508950E948F0608F4D0
:100B500081E008950E94BE050C94CA060E94C30657
:100B600058F00E94BC0640F029F45F3F29F00C9435
:100B7000B30651110C94FE060C94B9060E94DB06D4
:100B800068F39923B1F3552391F3951B550BBB27BC
:100B9000AA2762177307840738F09F5F5F4F220F01
:100BA000331F441FAA1FA9F335D00E2E3AF0E0E8F8
:100BB00032D091505040E695001CCAF72BD0FE2F42
:100BC00029D0660F771F881FBB1F261737074807D6
:100BD000AB07B0E809F0BB0B802DBF01FF2793588E
:100BE0005F4F3AF09E3F510578F00C94B3060C9499
:100BF000FE065F3FE4F3983ED4F3869577956795BC
:100C0000B795F7959F5FC9F7880F911D96958795C2
:100C100097F90895E1E0660F771F881FBB1F6217E1
:100C200073078407BA0720F0621B730B840BBA0B9F
:100C3000EE1F88F7E09508950E9423066894B1118D
:100C40000C94FE0608950E94E30688F09F5798F0E2
:100C5000B92F9927B751B0F0E1F0660F771F881FC1
:100C6000991F1AF0BA95C9F714C0B13091F00E94DB
:100C7000FD06B1E008950C94FD06672F782F8827B4
:100C8000B85F39F0B93FCCF3869577956795B39502
:100C9000D9F73EF490958095709561957F4F8F4F71
:100CA0009F4F0895E89409C097FB3EF49095809576
:100CB000709561957F4F8F4F9F4F9923A9F0F92F22
:100CC00096E9BB279395F695879577956795B795A0
:100CD000F111F8CFFAF4BB0F11F460FF1BC06F5F86
:100CE0007F4F8F4F9F4F16C0882311F096E911C098
:100CF000772321F09EE8872F762F05C0662371F0B9
:100D000096E8862F70E060E02AF09A95660F771FCC
:100D1000881FDAF7880F9695879597F90895990FA8
:100D20000008550FAA0BE0E8FEEF16161706E807B5
:100D3000F907C0F012161306E407F50798F0621BD6
:100D4000730B840B950B39F40A2661F0232B242BAB
:100D5000252B21F408950A2609F4A140A6958FEFCA
:100D6000811D811D089597F99F6780E870E060E01C
:100D700008959FEF80EC089500240A941616170634
:100D800018060906089500240A941216130614067C
:100D900005060895092E0394000C11F4882352F0DF
:100DA000BB0F40F4BF2B11F460FF04C06F5F7F4F97
:100DB0008F4F9F4F089557FD9058440F551F59F07E
:100DC0005F3F71F04795880F97FB991F61F09F3F38
:100DD00079F087950895121613061406551FF2CF61
:100DE0004695F1DF08C0161617061806991FF1CFB1
:100DF00086957105610508940895E894BB276627D8
:100E00007727CB0197F908950E948F0608F48FEF9A
:100E100008950E941C070C94CA060E94BC0638F074
:100E20000E94C30620F0952311F00C94B3060C9495
:100E3000B90611240C94FE060E94DB0670F3959F00
:100E4000C1F3950F50E0551F629FF001729FBB27C1
:100E5000F00DB11D639FAA27F00DB11DAA1F649F5D
:100E60006627B00DA11D661F829F2227B00DA11D10
:100E7000621F739FB00DA11D621F839FA00D611D96
:100E8000221F749F3327A00D611D231F849F600DB7
:100E9000211D822F762F6A2F11249F5750409AF0E0
:100EA000F1F088234AF0EE0FFF1FBB1F661F771F6C
:100EB000881F91505040A9F79E3F510580F00C9437
:100EC000B3060C94FE065F3FE4F3983ED4F3869598
:100ED00077956795B795F795E7959F5FC1F7FE2BD7
:100EE000880F911D9695879597F908950E948F0612
:100EF000880B990B089597FB072E16F4009407D0E2
:100F000077FD09D00E94B10707FC05D03EF490950B
:100F100081959F4F0895709561957F4F0895A1E247
:100F20001A2EAA1BBB1BFD010DC0AA1FBB1FEE1F63
:100F3000FF1FA217B307E407F50720F0A21BB30BAE
:100F4000E40BF50B661F771F881F991F1A9469F72A
:100F500060957095809590959B01AC01BD01CF0186
:100F60000895AA1BBB1B51E107C0AA1FBB1FA617F0
:100F7000B70710F0A61BB70B881F991F5A95A9F742
:100F800080959095BC01CD010895EE0FFF1F05904F
:100F9000F491E02D099481E090E0F8940C94D0074E
:040FA000F894FFCFF3
:100FA400000000001E018700B6006501E700C500CF
:100FB400D90001010101010100000101000000004C
:100FC4000000010001010001010001010100000114
:100FD4000100010100000100010000010100010104
:100FE40001000001010101010100010100000001F3
:100FF40000000101010101010100010101000101E1
:10100400010000000101000001006E616E00696EC4
:0A10140066006F7666000D0A00000A
:107800000C94343C0C94513C0C94513C0C94513CE1
:107810000C94513C0C94513C0C94513C0C94513CB4
:107820000C94513C0C94513C0C94513C0C94513CA4
:107830000C94513C0C94513C0C94513C0C94513C94
:107840000C94513C0C94513C0C94513C0C94513C84
:107850000C94513C0C94513C0C94513C0C94513C74
:107860000C94513C0C94513C11241FBECFEFD8E036
:10787000DEBFCDBF11E0A0E0B1E0ECE9FFE702C060
:1078800005900D92A230B107D9F712E0A2E0B1E065
:1078900001C01D92AD30B107E1F70E942D3D0C945F
:1078A000CC3F0C94003C982F959595959595959582
:1078B000905D8F708A307CF0282F295A8091C0000B
:1078C00085FFFCCF9093C6008091C00085FFFCCF60
:1078D0002093C6000895282F205DF0CF982F809127
:1078E000C00085FFFCCF9093C6000895EF92FF92F1
:1078F0000F931F93EE24FF2487018091C00087FD22
:1079000017C00894E11CF11C011D111D81E4E8164B
:1079100082E4F8068FE0080780E0180770F3E09132
:107920000401F091050109958091C00087FFE9CF1E
:107930008091C6001F910F91FF90EF9008950E94D3
:10794000763C982F8091C00085FFFCCF9093C600B5
:1079500091362CF490330CF09053892F089597555D
:10796000892F08951F930E949F3C182F0E949F3CCF
:107970001295107F810F1F9108951F93182F882350
:1079800021F00E94763C1150E1F71F9108951F935A
:10799000182F0E94763C803249F0809103018F5F5E
:1079A000809303018530C1F01F9108958091C0003C
:1079B00085FFFCCF84E18093C6008091C00085FFE5
:1079C000FCCF1093C6008091C00085FFFCCF80E102
:1079D0008093C6001F910895E0910401F091050184
:1079E00009951F9108950E94763C803241F0809164
:1079F00003018F5F80930301853081F008958091AA
:107A0000C00085FFFCCF84E18093C6008091C00058
:107A100085FFFCCF80E18093C6000895E0910401CA
:107A2000F09105010995089540E951E08823A1F0FE
:107A30002D9A28EE33E0FA013197F1F721503040CA
:107A4000D1F72D9828EE33E0FA013197F1F7215064
:107A50003040D1F7815061F708953F924F925F9285
:107A60006F927F928F929F92AF92BF92CF92DF924E
:107A7000EF92FF920F931F93CF93DF93000080E16B
:107A80008093C4001092C50088E18093C10086E015
:107A90008093C2005098589A259A81E00E94143D24
:107AA00024E1F22E9EE1E92E85E9D82E0FE0C02ECA
:107AB00010E1B12EAA24A394B1E49B2EA6E58A2E50
:107AC000F2E57F2EE0E26E2E79E4572E63E5462E36
:107AD00050E5352E0E94763C8033B1F18133B9F107
:107AE000803409F46FC0813409F476C0823409F41B
:107AF00085C0853409F488C0803531F1823521F1A3
:107B0000813511F1853509F485C0863509F48DC0BC
:107B1000843609F496C0843709F403C1853709F423
:107B200072C1863709F466C0809103018F5F80932C
:107B30000301853079F6E0910401F0910501099582
:107B40000E94763C803351F60E94F33CC3CF0E94E2
:107B5000763C803249F78091C00085FFFCCFF092DF
:107B6000C6008091C00085FFFCCF9092C600809136
:107B7000C00085FFFCCF8092C6008091C00085FFC9
:107B8000FCCF7092C6008091C00085FFFCCF609250
:107B9000C6008091C00085FFFCCF5092C600809146
:107BA000C00085FFFCCF4092C6008091C00085FFD9
:107BB000FCCF3092C6008091C00085FFFCCFB09210
:107BC000C60088CF0E94763C863808F4BDCF0E945C
:107BD000763C0E94F33C7ECF0E94763C803809F4CC
:107BE0009CC0813809F40BC1823809F43CC1883942
:107BF00009F48FC080E00E94C73C6CCF84E10E94F2
:107C0000BD3C0E94F33C66CF85E00E94BD3C0E94D3
:107C1000F33C60CF0E94763C809306010E94763C44
:107C2000809307010E94F33C55CF0E94763C80333D
:107C300009F41DC183E00E94BD3C80E00E94C73C66
:107C400049CF0E94763C809309020E94763C809343
:107C5000080280910C028E7F80930C020E94763C79
:107C6000853409F415C18091080290910902892B8D
:107C700089F000E010E00E94763CF801E85FFE4FDA
:107C800080830F5F1F4F80910802909109020817AF
:107C9000190788F30E94763C803209F045CF809125
:107CA0000C0280FF01C16091060170910701660F0F
:107CB000771F7093070160930601A0910802B091AD
:107CC00009021097C9F0E8E0F1E09B01AD014E0F09
:107CD0005F1FF999FECF32BD21BD819180BDFA9A17
:107CE000F99A2F5F3F4FE417F50799F76A0F7B1F4B
:107CF00070930701609306018091C00085FFFCCF5F
:107D0000F092C6008091C00085FFFCCFB092C60003
:107D1000E1CE83E00E94C73CDDCE82E00E94C73CFA
:107D2000D9CE0E94763C809309020E94763C8093D3
:107D300008028091060190910701880F991F909386
:107D40000701809306010E94763C853409F4A6C0A1
:107D500080910C028E7F80930C020E94763C8032D0
:107D600009F0B8CE8091C00085FFFCCFF092C6002C
:107D7000609108027091090261157105B9F140E046
:107D800050E080910C02A82FA170B82FB27011C0E2
:107D9000BB2309F45CC0E0910601F0910701319624
:107DA000F0930701E09306014F5F5F4F46175707B7
:107DB000E8F4AA2369F3F999FECF209106013091E6
:107DC000070132BD21BDF89A90B58091C00085FFB2
:107DD000FCCF9093C6002F5F3F4F30930701209355
:107DE00006014F5F5F4F4617570718F38091C00099
:107DF00085FDE5CE8091C00085FFF8CFE0CE81E023
:107E00000E94C73C67CE0E94763C803209F08CCE3F
:107E10008091C00085FFFCCFF092C6008091C00029
:107E200085FFFCCFE092C6008091C00085FFFCCFAB
:107E3000D092C6008091C00085FFFCCFC092C600E2
:107E40008091C00085FFFCCFB092C60043CEE09188
:107E50000601F091070194918091C00085FFFCCF4D
:107E60009093C6009CCF80E10E94C73C33CE0E9415
:107E7000763C0E94763C182F0E94763C112309F430
:107E800083C0113009F484C08FE00E94C73C22CE29
:107E900080910C02816080930C02E5CE80910C02EF
:107EA000816080930C0259CF809107018823880F4D
:107EB000880B8A2180930B02809106019091070123
:107EC000880F991F90930701809306018091080203
:107ED00080FF09C080910802909109020196909359
:107EE000090280930802F894F999FECF1127E091D6
:107EF0000601F0910701C8E0D1E08091080290915D
:107F00000902103091F40091570001700130D9F34B
:107F100003E000935700E89500915700017001308D
:107F2000D9F301E100935700E89509901990009169
:107F3000570001700130D9F301E000935700E89534
:107F40001395103498F011270091570001700130FB
:107F5000D9F305E000935700E895009157000170B0
:107F60000130D9F301E100935700E895329602976A
:107F700009F0C7CF103011F00296E5CF112480919F
:107F8000C00085FFB9CEBCCE8EE10E94C73CA2CD19
:0C7F900085E90E94C73C9ECDF894FFCF0D
:027F9C00800063
:040000030000780081
:00000001FF
