:1000000007C1000033C1000031C100002FC1000052
:100010002DC100002BC1000029C1000027C1000034
:1000200025C1000023C1000021C100001FC1000044
:100030001DC100001BC1000019C1000017C1000054
:1000400015C1000013C1000011C100000FC1000064
:100050000DC100000BC1000009C100008DC30000EC
:1000600005C1000053C3000028C30000FFC000000A
:10007000FDC00000FBC00000F9C00000F7C0000098
:10008000F5C00000F3C00000F1C00000EFC00000A8
:10009000EDC00000EBC00000E9C00000E7C00000B8
:1000A000E5C00000E3C00000E1C00000DFC00000C8
:1000B000DDC00000DBC00000D9C00000D7C00000D8
:1000C000D5C00000D3C00000D1C00000CFC00000E8
:1000D000CDC00000CBC00000C9C00000C7C00000F8
:1000E000C5C000009A029D028C0290029402D402C4
:1000F000A102A502AB02AF02B302B902BD02C10266
:10010000D402C702CB02CF0200000A0B02090C0D79
:100110000E080703040100000000000000000000BA
:1001200000000000000000000000000000000000CF
:10013000000000001211100000000000000000008C
:1001400000000000000000000000000000000000AF
:100150002200250028002B002E003100340002016F
:100160000000050108010B01000021002400270008
:100170002A002D00300033000101000004010701B6
:100180000A0105050505070508080808020202021C
:100190000A0A080804040404010101010101010123
:1001A0000303030303030303040707070C0C0C0CEE
:1001B0000C0C0C0C020202020606060606060606D7
:1001C0000B0B0B0B0B0B0B0B010210202008081064
:1001D00020401020408002010201080402010102B7
:1001E0000408102040808040201008040201800490
:1001F00002018040201008040201080402010102EB
:100200000408102040800102040810204080A80546
:1002100011241FBECFEFD1E2DEBFCDBF00E00CBF87
:1002200012E0A0E0B2E0ECE6FFE000E00BBF02C0AD
:1002300007900D92AE36B107D9F723E0AEE6B2E0F3
:1002400001C01D92A831B207E1F711E0C8E0D1E08A
:1002500000E005C021970109802FFE0165D6C73057
:10026000D10780E00807B1F7D1D27EC6C9CECF92C0
:10027000DF92EF92FF920F931F93CF93DF936C0166
:100280007A018B01C0E0D0E0CE15DF0589F0D801FE
:100290006D918D01D601ED91FC910190F081E02DE1
:1002A000C6011995892B11F47E0102C02196ECCF6D
:1002B000C701DF91CF911F910F91FF90EF90DF90D9
:1002C000CF900895089580E090E00895FC01538D4B
:1002D000448D252F30E0842F90E0821B930B541720
:1002E00010F0CF96089501970895FC01918D828DAD
:1002F000981761F0828DDF01A80FB11D5D968C917A
:10030000928D9F5F9F73928F90E008958FEF9FEF84
:100310000895FC01918D828D981731F0828DE80F40
:10032000F11D858D90E008958FEF9FEF0895FC01FA
:10033000918D228D892F90E0805C9F4F821B9109C7
:100340008F73992708958BE792E0F1DF21E0892BE5
:1003500009F420E0822F0895FC01848DDF01A80FAD
:10036000B11DA35ABF4F2C91848D90E001968F73DD
:100370009927848FA689B7892C93A089B1898C91FC
:1003800080648C93938D848D981306C00288F389C2
:10039000E02D80818F7D80830895EF92FF920F93EF
:1003A0001F93CF93DF93EC0181E0888F9B8D8C8D21
:1003B000981305C0E889F989808185FD23C0F62E50
:1003C0000B8D10E00F5F1F4F0F731127E02E8C8DE8
:1003D000E8120BC00FB607FCFACFE889F9898081D3
:1003E00085FFF5CFCE01B8DFF2CF8B8DFE01E80F90
:1003F000F11DE35AFF4FF0820B8FEA89FB89808160
:10040000806207C0EE89FF896083E889F98980816D
:100410008064808381E090E0DF91CF911F910F9104
:10042000FF90EF900895CF93DF93EC01888D8823A0
:10043000C1F0EA89FB89808185FD05C0A889B98959
:100440008C9186FD0EC00FB607FCF5CF808185FF2D
:10045000F2CFA889B9898C9185FFEDCFCE017CDFE1
:10046000E8CFDF91CF91089580E090E0892B19F0DB
:100470006ADF811125C080E090E0892B41F080E0A7
:1004800090E0892B21F00E94000081111CC080E0C7
:1004900090E0892B41F080E090E0892B21F00E94D0
:1004A0000000811113C080E090E0892BA1F080E072
:1004B00090E0892B81F00E94000081110AC008950C
:1004C0000E940000D8CF0E940000E1CF0E940000EF
:1004D000EACF0C9400000895362F90E0FC01E85F0D
:1004E000FE4F4491FC01E853FE4F2491FC01EE576E
:1004F000FE4F9491992309F46AC0442309F454C02F
:1005000050E0FA013197E231F10508F04DC088273B
:10051000EE58FF4F8F4F08C5809180008F7707C03E
:10052000809180008F7D03C080918000877F8093C1
:1005300080003AC084B58F7702C084B58F7D84BDBA
:1005400033C08091B0008F7703C08091B0008F7D61
:100550008093B00029C0809190008F7707C0809170
:1005600090008F7D03C080919000877F80939000E2
:100570001BC08091A0008F7707C08091A0008F7D65
:1005800003C08091A000877F8093A0000DC0809160
:1005900020018F7707C0809120018F7D03C080915B
:1005A0002001877F80932001E92FF0E0EE0FFF1FED
:1005B000E25BFE4FA591B4918FB7F894EC913111A5
:1005C00003C020952E2301C02E2B2C938FBF08959E
:1005D0003FB7F8948091730290917402A0917502D4
:1005E000B091760226B5A89B05C02F3F19F0019661
:1005F000A11DB11D3FBFBA2FA92F982F8827820FA9
:10060000911DA11DB11DBC01CD0142E0660F771FF8
:10061000881F991F4A95D1F708958F929F92AF92A4
:10062000BF920F931F93CF93DF93CDB7DEB7A19700
:100630000FB6F894DEBF0FBECDBF19A2423008F44A
:100640004AE08E010F5D1F4F842E912CA12CB12CFE
:10065000A501940147D4E62FB901CA01015011093F
:10066000EA3014F4E05D01C0E95CD801EC93232B7F
:10067000242B252B69F70115110569F0F80101906C
:100680000020E9F73197AF01401B510BB8018BE710
:1006900092E0EDDD02C080E090E0A1960FB6F89404
:1006A000DEBF0FBECDBFDF91CF911F910F91BF90E5
:1006B000AF909F908F90089553D41F920F920FB6D2
:1006C0000F9211240BB60F922F933F934F935F938A
:1006D0006F937F938F939F93AF93BF93EF93FF930A
:1006E0008BE792E039DEFF91EF91BF91AF919F913F
:1006F0008F917F916F915F914F913F912F910F90CB
:100700000BBE0F900FBE0F901F9018951F920F9267
:100710000FB60F9211240BB60F922F938F939F93C6
:10072000EF93FF93E0918B02F0918C028081E09136
:100730009102F091920282FD12C090818091940208
:100740008F5F8F7320919502821751F0E091940290
:10075000F0E0E558FD4F958F8093940201C08081B1
:10076000FF91EF919F918F912F910F900BBE0F9062
:100770000FBE0F901F9018951F920F920FB60F92F9
:1007800011242F933F938F939F93AF93BF938091A7
:100790006F0290917002A0917102B091720230913B
:1007A0006E0223E0230F2D3720F40196A11DB11D09
:1007B00005C026E8230F0296A11DB11D20936E02ED
:1007C00080936F0290937002A0937102B0937202B3
:1007D0008091730290917402A0917502B09176029B
:1007E0000196A11DB11D8093730290937402A09392
:1007F0007502B0937602BF91AF919F918F913F9117
:100800002F910F900FBE0F901F901895CF93DF93ED
:10081000CDB7DEB728970FB6F894DEBF0FBECDBFB9
:10082000789484B5826084BD84B5816084BD85B5CB
:10083000826085BD85B5816085BD80916E008160D7
:1008400080936E001092810080918100826080937D
:10085000810080918100816080938100809180007F
:100860008160809380008091B10084608093B100AA
:100870008091B00081608093B0008091910082608F
:10088000809391008091910081608093910080918C
:1008900090008160809390008091A100826080939D
:1008A000A1008091A10081608093A1008091A000AF
:1008B00081608093A000809121018260809321015A
:1008C00080912101816080932101809120018160CC
:1008D0008093200180917A00846080937A008091D7
:1008E0007A00826080937A0080917A0081608093A0
:1008F0007A0080917A00806880937A001092C1001B
:1009000022E030E0F901E853FE4F4491F901EE573F
:10091000FE4F8491882399F090E0880F991FFC0185
:10092000E859FE4FA591B491FC01E25BFE4F859121
:1009300094918FB7F894EC91E42BEC938FBF2F5FD9
:100940003F4F2D303105F1F6E0918B02F0918C0292
:1009500082E08083E0918702F09188021082E0912A
:100960008902F0918A028FEC808310929302E091C9
:100970008F02F091900286E08083E0918D02F091E9
:100980008E02808180618083E0918D02F0918E02E1
:10099000808188608083E0918D02F0918E02808159
:1009A00080688083E0918D02F0918E0280818F7D3E
:1009B000808330E4232E80917B00877F80937B00AF
:1009C00020927C0080917A00806480937A008091EC
:1009D0007A0086FDFCCF609178008091790070E00C
:1009E000782B072E000C880B990B7AD120E030E091
:1009F00040EA50E401D220E030E040E85AE3FCD184
:100A00002AE037ED43E25CE3D0D020E030E040E282
:100A100051E4F2D160937702709378028093790267
:100A200090937A022AD1CB016AE070E048D22BE0A1
:100A300030E03A8329839C838B83CB016AE070E0AA
:100A40003ED29E838D8378876F8322E3C22ED12C82
:100A5000FE0131967F0188E033243394380E60E044
:100A60003BDD61E0832D38DD00E010E0F7014080E0
:100A7000518093E0440C551C9A95E1F7F201E00F88
:100A8000F11FE050FE4F608181E0800F25DDC20143
:100A900080509E4F2C01990F6608770877FE14C08E
:100AA000E0917B02F0917C020190F081E02D6DE2FB
:100AB0008BE792E0199566277727CB0164197509B2
:100AC000860997094AE003C04AE0C301B201A5DDE7
:100AD00042E050E06AE672E08BE792E0C8DB0F5F2D
:100AE0001F4F0730110509F0C1CF72DD4B015C01CA
:100AF00088EE482E83E0582E612C712C69DDDC01D4
:100B0000CB0188199909AA09BB09883E9340A10520
:100B1000B10558F0F1E04F1A51086108710828EE4C
:100B2000820E23E0921EA11CB11C411451046104E9
:100B3000710421F782E0E80EF11C832D8C3009F05E
:100B40008BCF91E0C91AD10809F082CF8DDC33CF69
:100B5000EBE7F2E01382128288EE93E0A0E0B0E0CF
:100B600084839583A683B7838CE592E09183808309
:100B700085EC90E09587848784EC90E09787868762
:100B800080EC90E0918B808B81EC90E0938B828B5A
:100B900082EC90E0958B848B86EC90E0978B868B33
:100BA000118E128E138E148E08950CD0EBC0E3D0EC
:100BB00040F0DAD030F021F45F3F19F0CCC0511191
:100BC00015C1CFC0F0D098F39923C9F35523B1F3E1
:100BD000951B550BBB27AA2762177307840738F0AC
:100BE0009F5F5F4F220F331F441FAA1FA9F333D00B
:100BF0000E2E3AF0E0E830D091505040E695001CBF
:100C0000CAF729D0FE2F27D0660F771F881FBB1F7A
:100C1000261737074807AB07B0E809F0BB0B802D54
:100C2000BF01FF2793585F4F2AF09E3F510568F0A0
:100C300092C0DCC05F3FECF3983EDCF3869577957D
:100C40006795B795F7959F5FC9F7880F911D9695A2
:100C5000879597F90895E1E0660F771F881FBB1FFE
:100C6000621773078407BA0720F0621B730B840BAB
:100C7000BA0BEE1F88F7E095089504D06894B1117F
:100C8000B5C0089598D088F09F5790F0B92F992754
:100C9000B751A0F0D1F0660F771F881F991F1AF087
:100CA000BA95C9F712C0B13081F09FD0B1E0089574
:100CB0009CC0672F782F8827B85F39F0B93FCCF3F5
:100CC000869577956795B395D9F73EF4909580957D
:100CD000709561957F4F8F4F9F4F0895E89409C09D
:100CE00097FB3EF490958095709561957F4F8F4F5F
:100CF0009F4F9923A9F0F92F96E9BB279395F69575
:100D0000879577956795B795F111F8CFFAF4BB0FF2
:100D100011F460FF1BC06F5F7F4F8F4F9F4F16C056
:100D2000882311F096E911C0772321F09EE8872FE0
:100D3000762F05C0662371F096E8862F70E060E09C
:100D40002AF09A95660F771F881FDAF7880F969515
:100D5000879597F9089597F99F6780E870E060E0BC
:100D600008959FEF80EC089500240A941616170644
:100D700018060906089500240A941216130614068C
:100D800005060895092E0394000C11F4882352F0EF
:100D9000BB0F40F4BF2B11F460FF04C06F5F7F4FA7
:100DA0008F4F9F4F089557FD9058440F551F59F08E
:100DB0005F3F71F04795880F97FB991F61F09F3F48
:100DC00079F087950895121613061406551FF2CF71
:100DD0004695F1DF08C0161617061806991FF1CFC1
:100DE00086957105610508940895E894BB276627E8
:100DF0007727CB0197F908950BD0C4CFB5DF28F042
:100E0000BADF18F0952309F0A6CFABCF1124EECFAF
:100E1000CADFA0F3959FD1F3950F50E0551F629F55
:100E2000F001729FBB27F00DB11D639FAA27F00D43
:100E3000B11DAA1F649F6627B00DA11D661F829F6A
:100E40002227B00DA11D621F739FB00DA11D621F4F
:100E5000839FA00D611D221F749F3327A00D611D6C
:100E6000231F849F600D211D822F762F6A2F11244E
:100E70009F5750408AF0E1F088234AF0EE0FFF1FA1
:100E8000BB1F661F771F881F91505040A9F79E3FD8
:100E9000510570F060CFAACF5F3FECF3983EDCF3D2
:100EA000869577956795B795F795E7959F5FC1F715
:100EB000FE2B880F911D9695879597F9089597FBBE
:100EC000072E16F4009406D077FD08D035D007FC25
:100ED00005D03EF4909581959F4F0895709561954A
:100EE0007F4F0895A1E21A2EAA1BBB1BFD010DC066
:100EF000AA1FBB1FEE1FFF1FA217B307E407F507CA
:100F000020F0A21BB30BE40BF50B661F771F881FA5
:100F1000991F1A9469F760957095809590959B013B
:100F2000AC01BD01CF010895EE0FFF1F881F8BBFDD
:100F30000790F691E02D1994AA1BBB1B51E107C045
:100F4000AA1FBB1FA617B70710F0A61BB70B881F59
:100F5000991F5A95A9F780959095BC01CD010895E8
:0C0F600081E090E0F89400C0F894FFCF0E
:100F6C00010101010101000001010000000000006D
:100F7C00010001010001010001010100000101005B
:100F8C00010100000100010000010100010101004C
:100F9C00000101010101010001010000000100003C
:100FAC000101010101010100010101000101010028
:100FBC00000001010000010000000000CD0137011C
:0E0FCC00660113029701750189010D0A0000EC
:00000001FF
