:100000000C945C000C9479000C9479000C947900A9
:100010000C9479000C9479000C9479000C9479007C
:100020000C9479000C9479000C9479000C9479006C
:100030000C9479000C9479000C9479000C9479005C
:100040000C94A0000C9479000C9479000C94790025
:100050000C9479000C9479000C9479000C9479003C
:100060000C9479000C947900000000002400270013
:100070002A0000000000250028002B0004040404CE
:100080000404040402020202020203030303030342
:10009000010204081020408001020408102001021F
:1000A00004081020000000080002010000030407FB
:1000B000000000000000000011241FBECFEFD8E0B8
:1000C000DEBFCDBF11E0A0E0B1E0E4E0F4E002C0AB
:1000D00005900D92A634B107D9F721E0A6E4B1E06E
:1000E00001C01D92A135B207E1F70E94EA000C940D
:1000F00000020C9400003FB7F89480914B0190915E
:100100004C01A0914D01B0914E0126B5A89B05C0B0
:100110002F3F19F00196A11DB11D3FBFBA2FA92F86
:10012000982F8827BC01CD01620F711D811D911D83
:1001300042E0660F771F881F991F4A95D1F70895EF
:100140001F920F920FB60F9211242F933F938F930C
:100150009F93AF93BF938091470190914801A091E5
:100160004901B0914A013091460123E0230F2D3718
:1001700058F50196A11DB11D2093460180934701BA
:1001800090934801A0934901B0934A0180914B019B
:1001900090914C01A0914D01B0914E010196A11D8D
:1001A000B11D80934B0190934C01A0934D01B093EE
:1001B0004E01BF91AF919F918F913F912F910F90E1
:1001C0000FBE0F901F90189526E8230F0296A11DD1
:1001D000B11DD2CF789484B5826084BD84B581602E
:1001E00084BD85B5826085BD85B5816085BD809102
:1001F0006E00816080936E0010928100809181007A
:100200008260809381008091810081608093810071
:10021000809180008160809380008091B100846033
:100220008093B1008091B00081608093B000809194
:100230007A00846080937A0080917A008260809353
:100240007A0080917A00816080937A0080917A00B0
:10025000806880937A001092C10027E030E0F901B5
:10026000E057FF4F4491F901E458FF4F84918823F0
:1002700099F090E0880F991FFC01E859FF4FA59174
:10028000B491FC01EE58FF4F859194918FB7F8948B
:10029000EC91E42BEC938FBF2F5F3F4F2E30310555
:1002A000F1F641EB842E40E0942ECDE9D0E009E850
:1002B00010E057E0352E60E0A62E60E0B62E90E00C
:1002C00080E0F401E81BF90B3491FE01E81BF90B07
:1002D0002491F801E81BF90BE491EE2359F14091C8
:1002E0004F0150915001349ED001359EB00D112424
:1002F000A050BF4FA80FB91F4C91332359F0333092
:1003000009F460C008F053C0313009F461C03230E4
:1003100009F462C0F0E0EE0FFF1FEE58FF4FA59109
:10032000B4913FB7F894EC91411163C020952E230E
:100330002C933FBF01968830910509F0C2CF0E94EF
:100340007B002B013C0188EEC82E83E0D82EE12CE7
:10035000F12C0E947B006419750986099709683E93
:10036000734081059105A8F321E0C21AD108E10884
:10037000F10888EE480E83E0581E611C711CC11400
:10038000D104E104F10429F780914F0190915001CB
:1003900001968A30910579F19093500180934F0135
:1003A000A114B10409F48BCF0E94000088CF37302C
:1003B000B1F03830D1F0343009F0ACCF309180005A
:1003C0003F7D03C0309180003F7730938000A2CF03
:1003D00034B53F7734BD9ECF34B53F7DFBCF3091F0
:1003E000B0003F773093B00095CF3091B0003F7DA3
:1003F000F9CF2E2B9DCF1092500110924F01D0CFEC
:04040000F894FFCF9E
:1004040001010101010100000101000000000101DE
:1004140000010100010101010100000100010100CE
:1004240000010101000101000101010001010101BC
:1004340001010101000000000101010101010101AC
:06044400010101000101AD
:107E0000112484B714BE81FFF0D085E080938100F7
:107E100082E08093C00088E18093C10086E0809377
:107E2000C20080E18093C4008EE0C9D0259A86E02C
:107E300020E33CEF91E0309385002093840096BBD3
:107E4000B09BFECF1D9AA8958150A9F7CC24DD24C4
:107E500088248394B5E0AB2EA1E19A2EF3E0BF2EE7
:107E6000A2D0813461F49FD0082FAFD0023811F036
:107E7000013811F484E001C083E08DD089C08234E0
:107E800011F484E103C0853419F485E0A6D080C0E4
:107E9000853579F488D0E82EFF2485D0082F10E0AE
:107EA000102F00270E291F29000F111F8ED06801E7
:107EB0006FC0863521F484E090D080E0DECF843638
:107EC00009F040C070D06FD0082F6DD080E0C81688
:107ED00080E7D80618F4F601B7BEE895C0E0D1E017
:107EE00062D089930C17E1F7F0E0CF16F0E7DF06D8
:107EF00018F0F601B7BEE89568D007B600FCFDCFD4
:107F0000A601A0E0B1E02C9130E011968C91119780
:107F100090E0982F8827822B932B1296FA010C0160
:107F200087BEE89511244E5F5F4FF1E0A038BF0790
:107F300051F7F601A7BEE89507B600FCFDCF97BE46
:107F4000E89526C08437B1F42ED02DD0F82E2BD052
:107F50003CD0F601EF2C8F010F5F1F4F84911BD097
:107F6000EA94F801C1F70894C11CD11CFA94CF0C13
:107F7000D11C0EC0853739F428D08EE10CD085E9AC
:107F80000AD08FE07ACF813511F488E018D01DD067
:107F900080E101D065CF982F8091C00085FFFCCF94
:107FA0009093C60008958091C00087FFFCCF809118
:107FB000C00084FD01C0A8958091C6000895E0E648
:107FC000F0E098E1908380830895EDDF803219F02E
:107FD00088E0F5DFFFCF84E1DECF1F93182FE3DFCA
:107FE0001150E9F7F2DF1F91089580E0E8DFEE27F6
:047FF000FF270994CA
:027FFE00040479
:0400000300007E007B
:00000001FF
